:020000040000fa
:080000000001040000000000f3
:020000040000fa
:04000800f001000003
:020000040000fa
:04000c00f0010000ff
:020000040000fa
:04001000f0010000fb
:020000040000fa
:04001400f0010000f7
:020000040000fa
:04001800f0010000f3
:020000040000fa
:04001c00f0010000ef
:020000040000fa
:04002000f0010000eb
:020000040000fa
:04002400f0010000e7
:020000040000fa
:04002800dc010000f7
:020000040000fa
:04002c00f0010000df
:020000040000fa
:04003000f0010000db
:020000040000fa
:04003400c8010000ff
:020000040000fa
:04003800f0010000d3
:020000040000fa
:04003c00f0010000cf
:020000040000fa
:04004000f0010000cb
:020000040000fa
:04004400f0010000c7
:020000040000fa
:04004800f0010000c3
:020000040000fa
:04004c00f0010000bf
:020000040000fa
:04005000f0010000bb
:020000040000fa
:04005400f0010000b7
:020000040000fa
:04005800f0010000b3
:020000040000fa
:04005c00f0010000af
:020000040000fa
:04006000f0010000ab
:020000040000fa
:04006400f0010000a7
:020000040000fa
:04006800f0010000a3
:020000040000fa
:04006c00f00100009f
:020000040000fa
:04007000f00100009b
:020000040000fa
:04007400f001000097
:020000040000fa
:04007800f001000093
:020000040000fa
:04007c00f00100008f
:020000040000fa
:04008000f00100008b
:020000040000fa
:04008400f001000087
:020000040000fa
:04008800f001000083
:020000040000fa
:04008c00f00100007f
:020000040000fa
:04009000f00100007b
:020000040000fa
:04009400f001000077
:020000040000fa
:04009800f001000073
:020000040000fa
:04009c00f00100006f
:020000040000fa
:0400a000f00100006b
:020000040000fa
:0400a400f001000067
:020000040000fa
:0400a800f001000063
:020000040000fa
:0400ac00f00100005f
:020000040000fa
:0400b000f00100005b
:020000040000fa
:0400b400f001000057
:020000040000fa
:0400b800f001000053
:020000040000fa
:0400bc00f00100004f
:020000040000fa
:0400c000f00100004b
:020000040000fa
:0400c400f001000047
:020000040000fa
:0400c800f001000043
:020000040000fa
:0400cc00f00100003f
:020000040000fa
:0400d000f00100003b
:020000040000fa
:0400d400f001000037
:020000040000fa
:0400d800f001000033
:020000040000fa
:04010800f001000002
:020000040000fa
:04010c00f0010000fe
:020000040000fa
:04011000f0010000fa
:020000040000fa
:04011400f0010000f6
:020000040000fa
:04011800f0010000f2
:020000040000fa
:04011c00f0010000ee
:020000040000fa
:04012000f0010000ea
:020000040000fa
:04012400f0010000e6
:020000040000fa
:04012800dc010000f6
:020000040000fa
:04012c00f0010000de
:020000040000fa
:04013000f0010000da
:020000040000fa
:04013400c8010000fe
:020000040000fa
:04013800f0010000d2
:020000040000fa
:04013c00f0010000ce
:020000040000fa
:04014000f0010000ca
:020000040000fa
:04014400f0010000c6
:020000040000fa
:04014800f0010000c2
:020000040000fa
:04014c00f0010000be
:020000040000fa
:04015000f0010000ba
:020000040000fa
:04015400f0010000b6
:020000040000fa
:04015800f0010000b2
:020000040000fa
:04015c00f0010000ae
:020000040000fa
:04016000f0010000aa
:020000040000fa
:04016400f0010000a6
:020000040000fa
:04016800f0010000a2
:020000040000fa
:04016c00f00100009e
:020000040000fa
:04017000f00100009a
:020000040000fa
:04017400f001000096
:020000040000fa
:04017800f001000092
:020000040000fa
:04017c00f00100008e
:020000040000fa
:04018000f00100008a
:020000040000fa
:04018400f001000086
:020000040000fa
:04018800f001000082
:020000040000fa
:04018c00f00100007e
:020000040000fa
:04019000f00100007a
:020000040000fa
:04019400f001000076
:020000040000fa
:04019800f001000072
:020000040000fa
:04019c00f00100006e
:020000040000fa
:0401a000f00100006a
:020000040000fa
:0401a400f001000066
:020000040000fa
:0401a800f001000062
:020000040000fa
:0401ac00f00100005e
:020000040000fa
:0401b000f00100005a
:020000040000fa
:0401b400f001000056
:020000040000fa
:0401b800f001000052
:020000040000fa
:0401bc00f00100004e
:020000040000fa
:0401c000f00100004a
:020000040000fa
:0401c400f001000046
:020000040000fa
:0401c800f001000042
:020000040000fa
:0401cc00f00100003e
:020000040000fa
:0401d000f00100003a
:020000040000fa
:0401d400f001000036
:020000040000fa
:0401d800f001000032
:020000040000fa
:100200002f8820000ef720000e018800000000005b
:10021000000020000000e000020032000001200089
:1002200020028800140007006f0007000000e000b3
:1002300003003a00203020000100200002003700b7
:100240000000200001002000810f7000010032003a
:1002500014000700000020000000e000020032004f
:100260000000020000000000b602020000000000d2
:100270000040da000000fe004440a9000000200019
:100280000000e0000300320000002000a001880010
:100290004440a800000006008a1f78008b1f7800e9
:1002a0000000060091018800800478000000eb0047
:1002b0001a003700e284440032a0b4009905ba0065
:1002c000e284440032a0b4009906ba00e2844400fb
:1002d00032a0b4000006eb00476fde00fd07b2005d
:1002e000636ce10003003a00ebff07000000eb0045
:1002f0000a003700606ce10004003a00005deb008a
:100300008b05e900fdff3e00040037006168e10055
:10031000010032000086eb000b00070019c7ba008d
:100320001905ba000e04e00003003a000a00e000dc
:10033000e0ff3a0000000600fe07b2009e018800c0
:100340008a047800f5ff3700395dba008b05e900b3
:100350000c003200295dba008b05e900080032006c
:100360000c00e00003003a00e284440032a0b40034
:10037000f5ff370019ddba008b05e900faff3a00f6
:100380008904e800e184440032a0b40000000600c3
:100390003400f800881f780008002000a8018800b9
:1003a0004f0478000000fa008460a9000080fa0081
:1003b0003400f900004006003400f800881f78007f
:1003c00008002000a80188004f0478000000fa000f
:1003d0008400a9000080fa003400f9000040060003
:0c03e0000040da000000fe0000000500f4
:020000040000fa
:1003ec00d402a80000000000d422a90000000000e4
:1003fc00d442a80000000000c8e2b70000000000d2
:10040c00d442a90000000600d402a900000000009c
:10041c00d422a90000000000d442a8000000000073
:10042c00c8e2b70000000000d442a900000006009a
:10043c00d222ef0000000000c622ef0000000000f6
:10044c00d402a90000000000c6e2ef00000000008a
:10045c00d422a80000000000d442a8000000000034
:10046c00c8e2af003602040000000000d442a9002c
:10047c0000000000d422a90000000000c6a2ef007a
:10048c0000000000c662ef0000000600a802020097
:10049c0000000000000320000a020200000000001f
:1004ac00a802020000000000000320000a02020063
:1004bc0000000000a8020200000000000003200061
:1004cc000a020200000000001e02020000000000f0
:1004dc00800320000a020200000000001e0202003d
:1004ec0000000000800320000a020200000000004f
:1004fc001e02020000000000800020000a02020020
:10050c00000000001e02020000000000100020008d
:10051c000a020200000000001e020200000000009f
:10052c00600020000a020200000000001e0202000f
:10053c0000000000f00020000a0202000000000091
:10054c0000000600801f7800811f78000000e90081
:10055c00feff3a00cf0078004f0078000000060044
:10056c000000fa0012000700c8ff0700b0ff0700e8
:10057c0080c4b3009aff0700adff0700f0c4b300be
:10058c0097ff0700aaff0700c0c4b30094ff070041
:10059c00a7ff070010c4b30091ff07000000000084
:1005ac00feff37000000fa000080fa000000060091
:1005bc000000fa00c822ef0000000000ca22ef0081
:1005cc0000000000c622ef00000000000080eb00dd
:1005dc004015880000000000d422ef00000000004d
:1005ec00d622ef0000000000d222ef000000000035
:0805fc000080fa000000060077
:020000040000fa
:10060400000800008000000000000000800f0000cf
:1006140080000000000000008008000002000000cc
:080624000000000000000000ce
:020000040000fa
:04062c0000000000ca
:020000040000fa
:0200000401f009
:04000000e0b9000063
:020000040000fa
:0200000401f009
:04000400ff7f00007a
:020000040000fa
:0200000401f009
:04000800feff0000f7
:020000040000fa
:0200000401f009
:04001400ffff0000ea
:00000001FF
